:020000040800F2
:10000000783F01209D01000881A700089979000828
:10001000498F0008BD3900083DE0000800000000DD
:10002000000000000000000000000000F9B7000818
:10003000413A000800000000D5AC0008F1BC0008FF
:10004000B7010008B7010008B7010008B7010008B0
:10005000B7010008B7010008B7010008B7010008A0
:10006000B7010008B7010008B7010008B701000890
:10007000B7010008B7010008B7010008B701000880
:10008000B7010008B7010008B7010008B701000870
:10009000B7010008B7010008B7010008B701000860
:1000A000B7010008B7010008B7010008B701000850
:1000B000B7010008B7010008B7010008B701000840
:1000C000B7010008B7010008B7010008B701000830
:1000D000B7010008B7010008B7010008B701000820
:1000E0005D3B0008B7010008B7010008B701000830
:1000F000B7010008B7010008B7010008B701000800
:10010000B7010008B7010008B7010008B7010008EF
:10011000B7010008B7010008B7010008B7010008DF
:10012000B7010008B7010008B7010008B7010008CF
:10013000B7010008B7010008B7010008B7010008BF
:10014000B7010008B7010008B70100084DA9000871
:10015000B7010008B7010008B7010008B70100089F
:10016000B7010008B7010008B7010008B70100088F
:10017000B7010008B7010008B7010008000000003F
:10018000B7010008B7010008DFF80CD000F0F4FC5C
:1001900000480047F9920108783F0120064880474F
:1001A00006480047FEE7FEE7FEE7FEE7FEE7FEE75C
:1001B000FEE7FEE7FEE7FEE7B9BD0008890100089B
:1001C0002DE9F05F0546002092469B46884606468C
:1001D000814640241BE0284641464746224600F01F
:1001E00003FB53465A46C01A914110D31146184694
:1001F000224600F0EAFA2D1A67EB01084F46224624
:100200000120002100F0E1FA17EB00094E41201E09
:10021000A4F10104DFDC484631462A46434600F09B
:1002200000B830BCBDE8C09F0649074A0868504383
:1002300043F23902104408604008704701490860E1
:1002400070470000000000206D4EC64110B5431AF3
:10025000934209D28318881803E010F8011D03F8AF
:10026000011D521EF9D210BD40EA01039B0703D0C5
:1002700009E008C9121F08C0042AFAD203E011F8E5
:10028000013B00F8013B521EF9D210BDD2B201E091
:1002900000F8012B491EFBD270470022F6E710B58B
:1002A00013460A4604461946FFF7F0FF204610BDE4
:1002B000421E12F8013F002BFBD111F8013B02F85E
:1002C000013B002BF9D17047421C10F8011B00299B
:1002D000FBD1801A704710B5002200E0521C835CED
:1002E0008C5CA34201D1002BF8D1D8B2E1B2401A04
:1002F00010BD30B504460020034600E05B1C93426D
:1003000003D2E05CCD5C401BF8D030BD10B5044694
:1003100000E0401C0378002BFBD100E0401C521E83
:1003200004D311F8013B0370002BF7D100210170B9
:10033000204610BD2DE9FE4F804681EA0300C00F24
:100340000C46009021F0004123F00045B8EB02007C
:10035000A94105D24046214690461C460B4602461E
:1003600023F00040104347D0270DC7F30A00C3F322
:100370000A510290401A019040286BDAC3F313002F
:1003800040F4801B0098924620B10023D2EB030A70
:1003900063EB0B0B01985946C0F14002504600F048
:1003A00014FA06460D4650465946019A00F02CFABA
:1003B00010EB08006141002487EA115284EAE773D8
:1003C0001A4340D0009A62B3019A012A4FEA0752B9
:1003D00015DC001B61EB02014FF0004202EA0752FC
:1003E000CDE90042001C41F5801132462B4600F059
:1003F00081FA03B000F045B840462146F9E7001BFA
:1004000061EB0201001C41F5801300185B412018CC
:10041000A2F5001747EB030140EAD570B6196D410C
:1004200011E06D084FEA360645EAC0754FEA0752FB
:10043000001B61EB0201001C41F5801149084FEAE5
:1004400030000019514132462B4603B000F01CB871
:1004500000F041BA0098012240000023D0EB0202D4
:1004600063EBE073009821464FEAE074B8EB0000BC
:1004700061EB0401E9E783F000435BE781F00041B1
:1004800058E730BCBDE8C08F30BCBDE8C04FFFF7B7
:10049000DFBF2DE9FE4F81EA030404F0004421F0A0
:1004A000004100944FF0000B23F0004350EA010498
:1004B0005ED052EA03045BD0C3F30A54C1F30A5579
:1004C0002C44A4F2F3340194A0FB0254C1F31301B1
:1004D00041F48011C3F3130343F4801301FB02447E
:1004E00000FB034E840A970A44EA815447EA835783
:1004F000A4FB076802958D0A05FB07854FEA932C3C
:1005000004FB0C542705029D4FEA065847EA1637AC
:10051000B5EB08056EEB070C870E920E47EA8117C4
:1005200042EA8312A7FB0201B6EB0B0164EB000465
:100530002B0D43EA0C335E1844EB1C50DA4651464F
:10054000E7FB0201C5F313044FEA0B3343EA1453EC
:100550004FEA0432019C43EA0603A4F10C0402941E
:10056000009CCDE900B400F0C5F903B000F003B879
:1005700000200146F9E730BCBDE8C08F2DE9F04D01
:1005800081EA030404F0004B21F0004514464FF0CB
:10059000000A23F0004150EA050220D054EA01028B
:1005A0001DD0C5F30A570246C5F31303C1F3130068
:1005B000C1F30A5640F4801543F48013A7EB0608F4
:1005C000101BD64608F2FD3873EB050002D308F184
:1005D000010801E092185B41B8F1000F03DA002036
:1005E0000146BDE8F08D00204FF480110646844698
:1005F0000EE0171B73EB050705D3121B63EB050316
:1006000006434CEA010C49084FEA300092185B415E
:1006100050EA0107EDD152EA030012D082EA040049
:1006200083EA0501084305D0101BAB4106D2012225
:10063000002306E000224FF0004302E06FF00102C9
:1006400053101AEB06004CEB085110EB0A0041EB7B
:100650000B01BDE8F04D00F03EB930B5041E71F15C
:10066000000404DB4FF00044404264EB0101141E1F
:1006700073F1000405DB1C464FF00043524263EB6C
:100680000403801A994101D3012030BD002030BD00
:1006900030B5041E71F1000404DB4FF00044404209
:1006A00064EB0101141E73F1000405DB1C464FF0DE
:1006B0000043524263EB0403801A994101D20120A6
:1006C00030BD002030BD0EB5C10F80EAE070084497
:1006D000CA07002140F233438DE80E000A460B465C
:1006E00000F008F903B000BD0EB540F233410291AD
:1006F0000021CDE900110A460B4600F0FBF803B0DB
:1007000000BD70B5C1F30A5201F000450024C1F3E9
:10071000130140F2FF3341F480119A4201DA0020C4
:1007200070BD40F233439A42A2F2334203DC52429C
:1007300000F05AF800E090402C43F1D0404270BDE8
:1007400000F0004230F000400AD0C10D01F56071A8
:10075000C0F3160042EA0151C20840071143704736
:1007600000200146704701F0004330B421F0004101
:1007700050EA010206D00A0DA2F56072C1F313011E
:10078000002A02DC30BC00207047440F44EAC10458
:10079000C100E01830BC00EBC25000F047B830B5E3
:1007A0000B46014600202022012409E021FA02F52F
:1007B0009D4205D303FA02F5491B04FA02F52844C9
:1007C000151EA2F10102F1DC30BD202A04DB203A23
:1007D00000FA02F1002070479140C2F1200320FA94
:1007E00003F3194390407047202A04DB203A21FA92
:1007F00002F00021704721FA02F3D040C2F120023A
:100800009140084319467047202A06DBCB17203A4F
:1008100041FA02F043EAE07306E041FA02F3D04005
:10082000C2F1200291400843194670470029A8BF31
:100830007047401C490008BF20F00100704710B409
:10084000B0FA80FC00FA0CF050EA010404BF10BCBE
:10085000704749B1CCF1200421FA04F411FA0CF1EB
:1008600018BF012121430843A3EB0C01CB1D4FEA24
:1008700000614FEA102042BF002010BC704700EB1F
:10088000C35010440029A4BF10BC7047401C49004D
:1008900008BF20F0010010BC704710B541000CD01B
:1008A000C0F3C751962908DC7E2909DC06DB41022A
:1008B00004D000F0004040F07E5010BD002010BD7C
:1008C000C1F19604C4F1200100FA01F1E040FFF704
:1008D000ADFFA04010BD10B5141E73F1000408DA7E
:1008E000401C41F1000192185B411A4301D120F0F4
:1008F000010010BD2DE9F04D92469B4611B1B1FAB1
:1009000081F202E0B0FA80F220329046FFF75DFFFC
:1009100004460F4640EA0A0041EA0B0153465A4694
:10092000084313D0114653EA010019D0C8F1400220
:100930005046FFF759FF05460E4650465946424677
:10094000FFF743FF084305D0012004E02046394665
:10095000BDE8F08D0020054346EAE0762C4337439E
:100960000A986305E40AA0EB08000022FD0A44EAA5
:1009700047540A3002D500200146E9E70105101965
:100980006941DDE9084500196941BDE8F04DA2E77C
:1009900070B521F0004303430CD0C1F30A55002485
:1009A000D5EB040564EB0403D617AD1AB34102DBA3
:1009B0000020014670BD201841EB025170BD2DE9A9
:1009C000F04D00231A461B1A8A4103DB0020014622
:1009D000BDE8F08DC1F30A52C1F3130141F4801553
:1009E0004FF0000BD10702D100186D41521E0027B5
:1009F000044640F2FF11384601EB620A3E4680464B
:100A0000024600204FF48011FFF7EEFEC21971413B
:100A1000BB1846EB0100B4EB030C75EB000C04D3E0
:100A2000E41A65EB000517460E46241908F101008B
:100A30006D4180463428E3DDF91946EB0600091BB9
:100A4000A84103D24FF0FF32134601E000221346C3
:100A50001BEB070046EB0A51BDE8F04DFFF73BBF2B
:100A60002DE9F041054621F000400C46284309D00D
:100A7000C4F30A5040F23341884205DD284621463E
:100A8000BDE8F0812846FBE740F2FE31884210DCE9
:100A90000CDB4FEA043040EA155050EA053105D02E
:100AA000104804F0004101430020E9E7002001461E
:100AB000E6E7A0F233404642C6F14002284621460E
:100AC000FFF783FE07468846284621463246FFF751
:100AD0008BFE43463A46FFF7FEFE3246BDE8F04144
:100AE000FFF773BE0000F03FC1F30A52C1F31301D8
:100AF00040F2FF3341F480119A4202DA00200146AD
:100B0000704740F233439A42A2F2334202DC52422F
:100B1000FFF76ABEFFF759BE30B5041E71F100043D
:100B200004DB4FF00044404264EB0101141E73F1FA
:100B3000000405DB1C464FF00043524263EB040304
:100B40008B4208BF824230BD30B5041E71F10004F3
:100B500004DB4FF00044404264EB0101141E73F1CA
:100B6000000405DB1C464FF00043524263EB0403D4
:100B7000994208BF904230BD1CB509480090094811
:100B800001900546009C06E0E06840F0010394E80F
:100B9000070098471034AC42F6D3FFF7F9FA00008B
:100BA000B8DE0408D8DE040870B58C1810F8015BB4
:100BB00015F0070301D110F8013B2A1106D110F8F6
:100BC000012B03E010F8016B01F8016B5B1EF9D1FA
:100BD0002B0705D40023521E0DD401F8013BFAE780
:100BE00010F8013BCB1A921C03E013F8015B01F8EB
:100BF000015B521EF9D5A142D8D3002070BD000080
:100C00002DE9F04740F2D42A40F67C49C2F2000AAE
:100C1000C2F20009DAF82C10B9F80080C9F8000017
:100C2000884740B300260BE0B9F80000B2B20021BB
:100C30002346B847DAF82C000136804786421AD29C
:100C4000DAF828008047DAF820700446002FEBD14C
:100C5000002CEFD00027B5B203E000BF0137BC4243
:100C6000E8D0DAF81430002BF8D0B9F80020B8B288
:100C700029469847F2E7C9F80080BDE8F0870000F0
:100C80002DE9F04F83B0DDF830A014469AF800202B
:100C9000FF2A40F091809AF80170D82F40F08C80A4
:100CA0000DF1080C01AA804650460F4661461E46CB
:100CB00016F0E8FD42F2A8132246B646C2F200033F
:100CC0000026029C404642F2A01C1E6042F2AC1577
:100CD00042F2B419019B42F2B01B42F2A418394609
:100CE000C2F2000C0127C2F20005C2F20009C2F2F2
:100CF000000BC2F200089442CCF800702E60C9F8D4
:100D00000040CBF80030C8F8006098BF734532D976
:100D1000B4FBF2F8B3FBFEF6B04538BF4646012EF1
:100D200088BF374607FB0EF6CCF80070B34202FBD3
:100D300007F715D9A3EB060842F2A8154FEA5809A0
:100D4000C2F20005C5F8009042F2B41942F2AC15A7
:100D5000C2F20009C2F2000506EB5806CBF80060AB
:100D6000BC4208D9A4EB07084FEA58062E6007EBEF
:100D70005806C9F80060DCF80070B4FBF7F6B3FB66
:100D8000F7F3B7B297429FB298BF3246774540F229
:100D9000D42788BF7346C2F20007013A013BFF69BE
:100DA00092B29BB2B84742F24141C0F600015046B0
:100DB00016F03EFC044629E040F2D4249AF80130B3
:100DC000C2F20004E569571C5E1C7E43A8470AF185
:100DD000050503E0013E05F102050BD06369002B18
:100DE000F8D028884FF6FF7100BA020C4FF6FF705A
:100DF0009847EFE7A06AE5698047E16A04468847BB
:100E000003460020002122460024A847204603B0C4
:100E100000F000B830BCBDE8C08F0000F0B581B074
:100E200040F2D427C2F200070D46B96A14460646BE
:100E30008847F96A074688470346304629463A46B6
:100E40000094FFF71DFF01B0F0BD00002DE9F04F49
:100E500081B01646127898468B4605464AB1711CF9
:100E60004FF0FF300A1852780130002AFAD1441CA2
:100E700000E0002440F2D420C2F20000806A8047E3
:100E800040F67C49C2F20009D9F80810B8F1020F07
:100E90008988B0FBF1F007D0B8F1010F07D1001B32
:100EA000484305EB500502E0001B4843451B40F258
:100EB000D420C2F20000806A34788047ACB3D9F8FD
:100EC00008108A88904230D3771E00244FF007081C
:100ED00017F8010F18FA82F2A0F17F0313F15F0FE8
:100EE00038BF20200B68C988D2082038514301FB45
:100EF0000032A8B2594602F0A5FDD9F8080097F8CB
:100F000001A0868840F2D420C2F20000806A8047A7
:100F1000BAF1000F09D0D9F8081001348A88354495
:100F200002FB140080B29042D2D201B000F000B8AF
:100F300030BCBDE8C08F000040F67C42C2F2000227
:100F400093680A46D9880323484381B20020FFF7FB
:100F50007DBF000002F076BD2DE9F04F87B0074657
:100F6000032040F2D42940F67C481446A0EB420509
:100F70004FF0000B0626C2F20009C2F200080691EB
:100F800001970FE0A6EB8400B5F1FF3F06F10401E5
:100F9000C4BF061D013C0BF1010B019F3544A34565
:100FA0000E4668D8D9F8143006980BEB0701A0EB71
:100FB000040A0495059133B1B8F8002088B21FFAED
:100FC0008AF198470599D9F81430A7EB0B0533B18E
:100FD000B8F80020A8B21FFA8AF198470599D9F805
:100FE000143006980395CA46E519A0EB0B0933B1F6
:100FF000B8F80020A8B21FFA89F198470599DAF8E5
:1010000014300295A7EB040533B1B8F80020A8B25C
:101010001FFA89F198470599DAF814300698D146F5
:1010200004EB000723B1B8F8002088B2B9B29847A2
:10103000D9F81430039823B1B8F8002080B2B9B2BF
:101040009847D9F814300698AA460BEB00072BB145
:101050000298B8F8002080B2B9B29847D9F8143095
:10106000049D002B3FF48EAFB8F800201FFA8AF0E1
:10107000B9B2984786E707B000F000B830BCBDE8C9
:10108000C08F00002DE9F04F81B040F2D429C2F2A8
:101090000009D9F8205040F67C4A9B4616468846FF
:1010A0000746C2F2000A45B3BAF800003946424684
:1010B0003346A847D9F820500BEB080185B3BAF89E
:1010C00000008AB239463346A847D9F82450DDB328
:1010D000BAF80000394642465B46A847D9F824C012
:1010E000F119BCF1000F44D0BAF8000089B24246B1
:1010F0005B4601B000F056B86047002EDAD00024FD
:1011000003E000BF0134A642D4D0D9F81430002B3C
:10111000F8D0BAF80020E01980B241469847F1E7CC
:10112000002ED2D000248DB203E000BF0134A642CD
:10113000CBD0D9F81430002BF8D0BAF80020E01941
:1011400080B229469847F1E7BBF1000FC6D00024D2
:1011500003E000BF0134A345C0D0D9F81430002B00
:10116000F8D0BAF8002004EB080081B2384698475E
:10117000F0E7BBF1000F12D000248DB203E000BFF6
:101180000134A3450BD0D9F81430002BF8D0BAF8AD
:10119000002004EB080081B228469847F0E701B030
:1011A00000F005B830BCBDE8C04FFFF7A5BF30BCAC
:1011B000BDE8C08F2DE9F04F87B00D461099064667
:1011C00008440690480040F67C4ACDE90102A2EBB3
:1011D0004100C2F2000ABAF8001000F1010940F221
:1011E000D4281FFA89F44FF0010BC2F200080593CE
:1011F000CAF80010284604950CE000BF0699BAF81A
:10120000000089B2AAB22346B8475FEA0B40ABF1AF
:10121000010B18D0D8F820700135002FEED15FEA0D
:101220000940F2D0002702E00137BC42EDD0D8F8E7
:101230001430002BF8D00698BAF80020384480B259
:10124000A9B29847F0E7DDE9041001250144BAF896
:101250000000A1F1010B4FEA09490091CAF8000012
:101260000EE000BF0699BAF8000089B21FFA8BF2AF
:101270002346B8470BF1010B2804A5F1010519D04D
:10128000D8F82070002FEDD1B9F1000FF2D000276F
:1012900003E000BF0137BC42ECD0D8F81430002B7B
:1012A000F8D00698BAF80020384480B21FFA8BF1C3
:1012B0009847EFE71098049908440390841E059816
:1012C00001992546401ABAF8001000F10509CB46ED
:1012D000CAF800100CE000BFBAF80000AAB231460C
:1012E0000223B84701355FEA0B40ABF1010B13D085
:1012F000D8F82070002FEFD1002702E00137022F2D
:10130000F0D0D8F81430002BF8D0BAF80020B81973
:1013100080B2A9B29847F1E70299BAF800008D1996
:10132000CAF800000CE000BFBAF80000A9B2A2B2EF
:101330000223B84701345FEA0940A9F1010913D03B
:10134000D8F82070002FEFD1002702E00137022FDC
:10135000F0D0D8F81430002BF8D0BAF80020E819F3
:1013600080B2A1B29847F1E7109A002A00F0D98024
:10137000A81A00990290D04308444FF00109019047
:101380000AE000BFDDF81490109A09F101091FFA74
:1013900089F0904200F2C5801FFA89F012FA89F1B3
:1013A000101A4843FFF78FF941EC100B32F0C4FBE1
:1013B00032F09EFA51EC100BFFF7A3F901460698A4
:1013C0000491A0EB090B03980124401ABAF800100D
:1013D000451C2F46CAF800100CE000BFBAF8000008
:1013E0001FFA8BF1BAB20223B04701372004A4F1EF
:1013F000010415D0D8F82060002EEFD1002602E0BD
:101400000136022EF1D0D8F81430002BF8D0BAF8FB
:1014100000200BEB060080B2B9B29847F0E700BF9E
:101420000299BAF80000CDF8149089440124CAF852
:1014300000000BE0BAF800001FFA89F1AAB20223FB
:10144000B84701352004A4F1010415D0D8F8207064
:10145000002FEFD1002602E00136022EF1D0D8F89D
:101460001430002BF8D0BAF8002009EB060080B247
:10147000A9B29847F0E700BF0199049ABAF80000B2
:101480008C1801272546CAF800000BE0BAF80000C6
:101490001FFA8BF1AAB20223B04701353804A7F135
:1014A000010715D0D8F82060002EEFD1002602E009
:1014B0000136022EF1D0D8F81430002BF8D0BAF84B
:1014C00000200BEB060080B2A9B29847F0E700BFFE
:1014D000BAF800000125CAF800000CE0BAF80000D4
:1014E0001FFA89F1A2B20223B84701342804A5F1FA
:1014F00001053FF447AFD8F82070002FEED1002649
:1015000003E000BF0136022EEFD0D8F81430002BD4
:10151000F8D0BAF8002009EB060080B2A1B29847D3
:10152000F0E707B000F000B830BCBDE8C08F0000A5
:101530002DE9F04F8DB08346169840F67C4AC2F2F2
:10154000000A00EB0B07A2EB4000BAF8006006911E
:101550001944451C40F2D428CDE90B374F1EACB2DC
:101560004FF00109C2F20008099107920596CAF8E6
:1015700000600CE00C99BAF8000089B2BAB22346B8
:10158000B04701375FEA0940A9F1010917D0D8F83F
:101590002060002EEED12804F3D0002603E000BF27
:1015A0000136B442EDD0D8F81430002BF8D00C98A6
:1015B000BAF80020304480B2B9B29847F0E70698F4
:1015C00017990844841E1698264608440B99081A51
:1015D000BAF8001000F105094D46CAF800100AE0FB
:1015E000BAF80000B2B259460223B84701362804BF
:1015F000A5F1010515D0D8F82070002FF0D10027F3
:1016000003E000BF0137022FF0D0D8F81430002BD0
:10161000F8D0BAF8002007EB0B0080B2B1B29847BF
:10162000F0E70799BAF8000001EB0B06CAF80000D2
:101630000CE000BFBAF80000B1B2A2B20223B84772
:1016400001345FEA0940A9F1010913D0D8F82070EC
:10165000002FEFD1002702E00137022FF0D0D8F899
:101660001430002BF8D0BAF80020F01980B2A1B2E3
:101670009847F1E7169A002A00F086800999D0432E
:1016800008440990B01A4FF001090890CDF828B02D
:1016900007E000BF09F10109169A1FFA89F090428C
:1016A00072D81FFA89F012FA89F1101A4843FFF72D
:1016B0000AF841EC100B32F03FFA32F019F951EC14
:1016C000100BFFF71EF80C99099AA1EB0906BAF85E
:1016D00000101718CDF82C904FF0010BB946CAF83E
:1016E00000100DE0BAF80000B1B21FFA89F202232F
:1016F000A84709F101095FEA0B40ABF1010B15D0D6
:10170000D8F82050002DEDD1002402E00134022C45
:10171000EFD0D8F81430002BF8D0BAF800203019E8
:1017200080B21FFA89F19847F0E700BF0899DDF809
:101730002C90BAF80000DDF828B009EB010601246E
:10174000CAF800000BE000BFBAF80000B1B2BAB2AC
:101750000223A84701372004A4F101049AD0D8F845
:101760002050002DF0D1002503E000BF0135022DEF
:10177000F0D0D8F81430002BF8D0BAF80020701947
:1017800080B2B9B29847F1E7179800920190189883
:10179000DDE90612199F029058460023039700F0D6
:1017A00009F80598CAF800000DB000F000B830BC88
:1017B000BDE8C08F2DE9F04F97B040F67C49C2F2EA
:1017C00000090546B9F80000DDE922730690B9F872
:1017D0000400DDE920640590B2FBF3F072190D906E
:1017E000A0EB46000B92421CA01B0130079090B268
:1017F0001191012B98BF012310921290781C72183E
:101800000990901E0290501C1390A81B0190781E06
:1018100040F2D4280390009160180021C2F2000821
:101820000C9308920A95049006E000BF0F990C985B
:101830000131814200F0998122980F918142F5D0C7
:101840000D980F9ADDF81CA002FB00F10E910B9988
:10185000DDE9117602FB001B05980125C9F800009F
:101860000BE000BFB9F800001FFA8BF1BAB23346A3
:10187000A0472804A5F101051AD0D8F82040013767
:10188000002CEFD110980004F3D0002403E000BF37
:101890000134A642EDD0D8F81430002BF8D0B9F8B6
:1018A000002004EB0B0080B2B9B29847F0E700BF0C
:1018B00009980F99814240F0CD80209B002B00F0C9
:1018C00087800B980E99019A084415900F980D99EE
:1018D000013000FB01204FF0010A149007E000BF27
:1018E0000AF1010A209B1FFA8AF0984270D81FFA69
:1018F0008AF013FA8AF1181A4843FEF7E4FE41EC25
:10190000100B32F019F931F0F3FF51EC100BFEF728
:10191000F8FE1599139ACDF858A0A1EB0A0AB9F868
:101920000010161A4FF0010B3746C9F800100CE0F2
:10193000B9F800001FFA8AF1BAB20223A8470137AA
:101940005FEA0B40ABF1010B16D0D8F82050002D08
:10195000EED1002403E000BF0134022CEFD0D8F810
:101960001430002BF8D0B9F800200AEB040080B244
:10197000B9B29847F0E700BF1499DDF858A0B9F85C
:1019800000000AEB01070124C9F800000BE000BFCA
:10199000B9F80000B9B2B2B20223A8470136200458
:1019A000A4F101049CD0D8F82050002DF0D10025DE
:1019B00003E000BF0135022DF0D0D8F81430002B21
:1019C000F8D0B9F80020781980B2B1B29847F1E7A1
:1019D0000F9D0E9AB5FA85F041090A98039E069F5D
:1019E00002444800B54202EB410AC9F800705BD1DD
:1019F0000D991844081A441C049EC9F80070A7B237
:101A00004FF0010B0EE000BFB9F800001FFA8AF199
:101A1000B2B23B46A84701365FEA0B40ABF1010B7F
:101A20003FF404AFD8F82050002DEDD12004F2D0BF
:101A3000002502E00135AF42EDD0D8F81430002B7C
:101A4000F8D0B9F8002005EB0A0080B2B1B298478F
:101A5000F0E700BF0A990E9AB9F80000029F5618E5
:101A60005546C9F800000BE0B9F80000B1B2BAB2AF
:101A70000223A04701372804A5F101053FF41DAF5B
:101A8000D8F82040002CEFD1002402E00134022CD1
:101A9000F0D0D8F81430002BF8D0B9F80020301965
:101AA00080B2B9B29847F1E709998D422FD10D99CB
:101AB00018440C1A049E9A44C9F80070A7B24FF05B
:101AC000010B0DE0B9F800001FFA8AF1B2B23B46F3
:101AD000A84701365FEA0B40ABF1010B3FF4A6AE1D
:101AE000D8F82050002DEDD12004F2D0002502E0DE
:101AF0000135AF42EDD0D8F81430002BF8D0B9F84A
:101B000000200AEB050080B2B1B29847F0E70D99CA
:101B1000049E0C1AC9F80070A7B24FF0010B0DE03B
:101B2000B9F800001FFA8AF1B2B23B46A847013665
:101B30005FEA0B40ABF1010B3FF478AED8F82050D0
:101B4000002DEDD12004F2D0002502E00135AF4296
:101B5000EDD0D8F81430002BF8D0B9F8002005EB00
:101B60000A0080B2B1B29847F0E722980D990B9A1B
:101B700001FB00FA01FB0026209801274FEA400BE9
:101B80000698C9F8000009E0B9F80000129BB1B24C
:101B900092B2A8473804A7F101071DD0D8F8205009
:101BA000119A002D02F101021192EDD1109800045A
:101BB000F0D0002404E000BF12980134A042E9D024
:101BC000D8F81430002BF7D01199B9F80020A019DB
:101BD00080B289B29847EFE7079F2098229A4FF684
:101BE000FC71381A002A18BF471A0A99B9F8000080
:101BF000029C0AEB0106C9F800000AE0B9F80000EF
:101C0000B1B2A2B20223A84701343804A7F10107F8
:101C100014D0D8F82050002DF0D1002503E000BFEB
:101C20000135022DF0D0D8F81430002BF8D0B9F8D7
:101C30000020701980B2A1B29847F1E72398411EA5
:101C400022981591814240F03081209A002A00F0BC
:101C5000F7800B9D0D9B0AEB050014900A98099CD8
:101C6000801A03FB040000991390B01A1290D0431D
:101C7000219F01443944119103FB04514FF0010BA2
:101C80001091049908440F9008E000BF0BF1010B7C
:101C9000209A1FFA8BF0904200F2D2801FFA8BF04C
:101CA00012FA8BF1101A4843FEF70DFD41EC100BB0
:101CB00031F042FF31F01CFE51EC100BFEF721FD1C
:101CC000014614981691A0EB0B0608980124401ABF
:101CD000B9F8001000F1010A5746C9F800100AE0EF
:101CE000B9F80000B1B2BAB20223A8470137200404
:101CF000A4F1010414D0D8F82050002DF0D1002513
:101D000003E000BF0135022DF0D0D8F81430002BCD
:101D1000F8D0B9F80020701980B2B9B29847F1E74D
:101D20001399B9F800000BEB01060127C9F8000070
:101D30000DE000BFB9F80000B1B21FFA8AF2022329
:101D4000A8470AF1010A3804A7F1010716D0D8F80C
:101D50002050002DEED1002403E000BF0134022CFE
:101D6000EFD0D8F81430002BF8D0B9F80020301993
:101D700080B21FFA8AF19847F0E700BF2298DDF899
:101D800058A058B3129811990BEB0006B9F800004F
:101D900001EB0A070124C9F800000AE0B9F80000C5
:101DA000B1B2BAB20223A84701372004A4F101045A
:101DB00014D0D8F82050002DF0D1002503E000BF4A
:101DC0000135022DF0D0D8F81430002BF8D0B9F836
:101DD0000020701980B2B9B29847F1E7229815999E
:101DE00081423FF453AF10980F99A0EB0B06B9F85E
:101DF000000001EB0A070124C9F800000CE000BF55
:101E0000B9F80000B1B2BAB20223A84701372004E2
:101E1000A4F101043FF43AAFD8F82050002DEFD1DF
:101E2000002502E00135022DF0D0D8F81430002B47
:101E3000F8D0B9F80020701980B2B9B29847F1E72C
:101E4000229815998142DDE9052008BF02460A98CB
:101E500023990D9BDDF81CA003FB0106029DC9F828
:101E600000200BE0B9F80000B1B2AAB20223B847D3
:101E700001355FEA0A40AAF1010A13D0D8F82070B0
:101E8000002FEFD1002402E00134022CF0D0D8F86A
:101E90001430002BF8D0B9F80020301980B2A9B264
:101EA0009847F1E717B000F033B80D99DDE9092044
:101EB000029C01FB02072198B9F80010A0EB0B006F
:101EC00000F1040BC9F800100DE000BFB9F80000E4
:101ED000B9B2A2B20223A84701345FEA0B40ABF1CA
:101EE000010B3FF4B2AED8F82050002DEED1002502
:101EF00003E000BF0135022DEED0D8F81430002BDE
:101F0000F8D0B9F80020781980B2A1B29847F1E76B
:101F100030BCBDE8C08F0000B0B500F01F0E01F06E
:101F20001F04A4EB0E0400EE104A01EE103AB8EEC6
:101F3000C00AB8EEC11A02EE102AC0F3451CC1F364
:101F4000451521EE000AB8EEC22A80EE020AA5EB82
:101F50000C0203EE102AB8EEC33AC90A21EE033A86
:101F600083EE023AA1EBD02104EE101AB8EEC44A77
:101F700021EE041A81EE021A02EE10EAB8EEC22A2D
:101F800030EE020ABDEEC00A10EE101A00EE10CAC2
:101F9000B8EEC00AC00A33EE000ABDEEC00A10EE69
:101FA000102A00EE100AB8EEC00A31EE000ABDEEAB
:101FB000C00A10EE100A02F03F0241EAC02040EAD7
:101FC000421080B2B0BD00002DE9F04F87B040F65E
:101FD0007C43C2F20003059103900320198840F26C
:101FE000D42B9046A0EB42070020C2F2000B4FF02A
:101FF000000919600690019223E000BF40F67C4082
:10200000C2F20000029B0088B9B2AAB29BB2B047EC
:102010000620049F00EB8900A9EB0801B7F1FF3F00
:102020004FF00A02C4BF02EB8100A8F10108074487
:10203000069809F10109C14500F10200069000F27D
:10204000A980B8F1000F049727D00398DBF820602F
:10205000A0EB080A0598002E09EB00044FEA48009F
:1020600087B255D040F67C40C2F2000000881FFACB
:102070008AF1A2B23B46B047DBF820600598002EFB
:10208000A0EB09045AD040F67C40C2F20000008860
:102090001FFA8AF1A2B23B46B047B9F1000FB7D0A0
:1020A0000698DBF8206084B20398002EA0EB0907A5
:1020B00005984FEA4903A0EB080A029354D040F672
:1020C0007C40C2F200000088B9B21FFA8AF29BB2CB
:1020D000B047DBF820600598002E08EB00058DD195
:1020E0000298000494D0002603E000BF0136B442F9
:1020F0008ED0DBF81430002BF8D040F67C40C2F2D2
:1021000000000288B81980B2A9B29847EEE700BF74
:10211000002FB1D0002502E00135AF42ACD0DBF892
:102120001430002BF8D040F67C40C2F20000028848
:102130000AEB050080B2A1B29847EDE7002FACD0C2
:10214000002502E00135AF42A7D0DBF81430002BA8
:10215000F8D040F67C40C2F2000002880AEB05008D
:1021600080B2A1B29847EDE71804B2D0002502E092
:102170000135AC42ADD0DBF81430002BF8D040F67E
:102180007C40C2F200000288781980B21FFA8AF1FE
:102190009847EDE740F67C47C2F200073B8803987A
:1021A0000599019A3B6007B000F002B8FEF7D4BE73
:1021B00030BCBDE8C04FFFF7F9BF00002DE9F04F7C
:1021C00085B0B0F80090B0F8028002294F464E4624
:1021D000C646434622D301244346C6464E464F4692
:1021E000012500BF00EB840C30F92440BAB29442C0
:1021F000B2B2B8BF27469442C8BF2646BCF90220F7
:102200001FFA8EF4A2429CB205F10105B8BF9646B2
:10221000A2422CB2C8BF13468C42E3DB022958D33A
:10222000B2B212FA87F24FEA520A9AB2CDF810808F
:1022300012FA8EF2A1F101085FEA08414FEA520B4F
:102240002CD0CDF80C90A0F1040900BF39F8046F30
:102250005246B9F80250B9F80440B9F80670304651
:1022600021462B46CDE9007B01F0F4FC3046514677
:1022700022462B46CDE900B701F0ECFC5046214642
:1022800032465B46CDE9007501F0E4FCA8F1010897
:102290005FEA0840DAD1DDF80C9001E00024002765
:1022A000049D4846214652462B46CDE9007B01F06D
:1022B000D1FC4846514622462B46CDE900B701F0F5
:1022C000C9FC504621464A465B46CDE9007501F0FF
:1022D000C1FC05B000F000B830BCBDE8C08F000004
:1022E0002DE9F04F81B040F67C49C2F200090D465D
:1022F000B9F8001040F2D42A984614468346C2F238
:10230000000AC9F800100BE0B9F80000AAB259465B
:102310002346B84701355FEA0840A8F1010818D004
:10232000DAF82070002FEFD1002CF3D00027AEB2E6
:1023300003E000BF0137BC42ECD0DAF81430002BC8
:10234000F8D0B9F8002007EB0B0080B2314698476F
:10235000F0E701B000F000B830BCBDE8C08F00006D
:1023600040F67C42C2F20002D2E9002302800B80D8
:102370007047000040F67C40C2F200008068704761
:1023800090F800C0BCF1FF0F04D14378D82B08BFF0
:1023900015F078BAC1F800C04078106070470000AE
:1023A00080B540F2D420C2F20000806A804780BD30
:1023B00080B540F2D420C2F20000C06A804780BDE0
:1023C00080B540F2D420C2F200000068804721208E
:1023D00005F010FF362005F00DFF682005F086FEA1
:1023E00040F67C41C2F2000140F25C024FF6FF7001
:1023F0000023C2F20002C1E9000300208A6080BD10
:1024000040F67C41C2F200014860704740F67C42D1
:10241000C2F20002C2E900017047000040F67C41B0
:10242000C2F200018860704742F22F31C2F200010F
:102430000870704740F67C41C2F2000108607047A6
:102440002DE9F04FADF5217D42F2A41C42F2A0121D
:10245000C2F2000CC2F20002DCF80030126841F651
:10246000AC07C2F20007B3FBF2F6386042F2A817DD
:10247000C2F2000706FB12343E6842F2B017C2F205
:1024800000073F685D1CCCF800504CB9B34207D33D
:10249000BB4205D2032908D2002101A805F0E6FDC0
:1024A00000200DF5217D00F077B84AF6AB23CAF67F
:1024B000AA23A1FB031342F2AC11C2F20001D1F82E
:1024C00000C042F2B411C2F20001D1F800E042F2C1
:1024D0002F31C2F2000191F800B09FED2D1A9FED4F
:1024E0002D4A5B0800216FF018080DF1040A45F22F
:1024F0005659B2EE0E0AB3EE002AB3EE0F3A00259B
:1025000011E0C619C45D777804F0F804B67808EADB
:10251000C70747EA042444EAD6072AF811700131B4
:102520000135AB42B9D0B5FBF2F707FB1257002FCC
:10253000F6D16545F4D37545F2D2BBF1000F05EB3A
:102540004507DED0C6197478B678C75D34443C447C
:1025500004FB09F4240C05EE104AB8EE455A25EEAA
:10256000006A86EE016A25EE035A85EE015A36EEC0
:10257000026ABDEEC66A35EE045A16EE104ABDEE8A
:10258000C55A15EE106AE70266F34A172743C4E7F7
:1025900000007F430000004230BCBDE8C08F000057
:1025A00070B586B0044601280CD0C4B941F24C0085
:1025B000C4F20200016841F004010160006800F00B
:1025C00004000AE041F24C00C4F20200016841F04C
:1025D00010010160006800F010000190019848F6B9
:1025E000A830C0F6030030F81450012002900020FB
:1025F00040F2640603900220C2F20006049056F8EE
:10260000240001A9019501F03DFE56F82400294659
:10261000002201F021FF06B070BD0000027840F6F4
:102620007441C2F200010023052A0B600FD244F668
:102630005873C0F6030353F8223040F6784C5A68BA
:10264000C2F2000CCCF8003008602AB1104740F606
:102650007840C2F20000036001207047F0B5ADF58C
:10266000097D40F67446C2F2000640F2031130685C
:10267000ADF81A100178002956D140F67845C2F21B
:10268000000529680A68002111704278012A3BD0B0
:102690008DF8181040F28041C2F2000191E88C00E0
:1026A000097B4992B0F862208DF830111104D0E90D
:1026B00014024A93FF3106AB4B971027CDE9003047
:1026C000CDE902210DF221100DF11D020DF11A03C9
:1026D0000D21049723F06EFEB0B940F26C57C2F2A0
:1026E000000700BF22F072FB04462AF0EDFC3868B8
:1026F00008B1804730B1022CF4D01CB99DF8180005
:102700000028EFD1002C4FD021F094F84FF4FA704C
:1027100001F064FB27F09EFA21F0B2F80DF22111CE
:10272000522026F0D1FF18B101200DF5097DF0BD32
:1027300030684178012906D129F036FF2868012147
:102740000068017006E04179063048AA27F09EFA39
:102750000028E9D13068407820283CD122F088FD5B
:102760003068102100F120030820032223F08CF9A7
:102770000028D9D140F28040C2F200000DF11D02C4
:102780000DF11A030D212EF049FE0028CCD140F2A4
:102790007240C2F200000088BDF82010884203D0C9
:1027A00002200DF5097DF0BD4EF2031000F0FAFC99
:1027B00006A80921022200F073F9BDF8180000BA3A
:1027C000000CADF8180000F0EDFC0028ACD1286832
:1027D00001210068017000200DF5097DF0BD0000A9
:1027E00070B5ADF50C7D40F67845C2F2000528685D
:1027F00000210068017021F01DF84FF4FA7001F01B
:10280000EDFA21F03DF840F67444C2F2000420686D
:10281000007804280FD129F031FC21F031F820682C
:10282000013029F085FA000659D12068407829F056
:10283000A5FC000653D12068007801286ED140F233
:102840000310ADF8180027F08FFE0DF21F120DF5E2
:102850008F7308200021002627F006FC00063ED1D9
:1028600022F006FD20680222411C2030CDE900162E
:10287000CDE90260082010210023102623F0FCF986
:1028800000062CD100208DF82C0140F28040C2F2CD
:10289000000090E80E004D924C912168007BB1F849
:1028A00062208DF83C011004D1E914124E93FF30E0
:1028B0004BABCDE90031CDE902200DF22D100DF129
:1028C0001B0206AB0D21049623F074FD044650B1A3
:1028D000200604D10120012400F064FCD8B10120BD
:1028E0000DF50C7D70BD40F26C56C2F2000600BFC3
:1028F00022F06CFA04462AF0E7FB306810B18047FA
:102900000028E5D0022CF3D0002CE1D19DF82C0159
:102910000028EDD1DCE728680068047000200DF580
:102920000C7D70BD10B588B020F084FF4FF4FA70B4
:1029300001F054FA012028F017F920F0A1FF40F629
:102940007844C2F20004206800218368684610229F
:1029500098472168B0FA80F00968420900200A709F
:1029600008B010BD70B588B040F67444C2F20004DF
:102970002068007803283AD120F082FF00F03EF86A
:1029800044F2A0612268C2F200010870D11C0DF16E
:102990000E0C102504AB22203022CDE9005C28F07B
:1029A00085FB000605D145F63D70C2F2000001210D
:1029B0000170206840F28E46C11CC2F2000604ABD2
:1029C00022200022CDE90056002428F063FC0006F6
:1029D00031884FF0040008BF481E40F67841C2F22B
:1029E00000010968308008680121017002E00020C0
:1029F00020600124204608B070BD000040F67440FD
:102A0000C2F20000006800282BD00178032928D1E9
:102A1000817AE02925D1417A022922D1007AA0F1D8
:102A20002C0132291DD80120DFE801F01A1A1A1BE7
:102A30001B1B1B1B1B1B1B1B1B1B1B1B1B1B1B1BE6
:102A40001B1B1B1B1A1A1A1B1B1B1B1B1A1A1A1BDC
:102A50001B1B1B1B1B1B1B1B1B1B1B1B1A1A1A00E4
:102A6000704700207047000040F67840C2F2000036
:102A7000006830B1006820B10078002818BF01203C
:102A8000704700207047000040F67843C2F2000310
:102A90001B6813B19B6803B1184701207047000001
:102AA0002DE9F04FADF50D7D8246F020ADF82A00FE
:102AB000100400F0D8800DF2311003300DF12D0814
:102AC00040F26C5993460D46099008F10300C2F29A
:102AD0000009144600260790CDF818A0089200BF00
:102AE00040F67440C2F2000000684178002900F00E
:102AF0007F80202922D0012940F0BA80063041464B
:102B0000F0220DF12A0329F069FDBDF82A200146C3
:102B1000022A4FF00100C0F0A7801BFA85F3934210
:102B200000F2A280A8B2CFB208EB000150465A468C
:102B3000ADF82AB0FDF78AFB89E000BF29BA40F260
:102B40007443090CC2F20003598042461FFA84F80C
:102B5000F021B8F1F00F38BF414619711F6800230A
:102B60008DF83031099B93461F60B0F8627019717F
:102B70003904D0E91407FF314CABCDE90030CDE981
:102B800002710DF2311005210DF12A03102704976F
:102B900023F010FC10B1C7B218E000BF22F016F904
:102BA00082462AF091FAD9F8000008B1804748B16E
:102BB000BAF1020FF2D0BAF1000F03D19DF8300143
:102BC0000028EBD15FFA8AF7DDF818A0BDF82A00DB
:102BD000032836D3023880B2404538BF8046079973
:102BE0001AFA86F04246ADF82A80FDF72FFB2BE05B
:102BF00040F23C41A808C2F2000148700DF12A00E1
:102C00000090002042F260370190084602214246BF
:102C1000F023C0F20407029729F0C4FFC7B2BDF841
:102C20002A0005F00301401A80B2A2B2904238BFD8
:102C300002461AFA86F04144ADF82A20FDF706FB59
:102C400005E00020ADF82A00D846DDF820B04FF0AE
:102C500001004FB9BDF82A1031B1641A0D442004A7
:102C60000E447FF43DAF00200DF50D7D00F005B85A
:102C700001200DF50D7D00F000B830BCBDE8C08F1F
:102C80002DE9F04FADF50B7D40F67445C2F200051D
:102C90002B6893461A788A46012A814627D0042A4F
:102CA00040F0AA8000270DF2291802E0002C40F025
:102CB000A880BEB2B34540F29F8007EB0A05C5F37A
:102CC0008700414629F022FA0406EFD105F00301FE
:102CD000ABEB0600C1F10405A84238BF054609EB7D
:102CE000060041442A46FDF7B1FA2F44DEE7CDF84D
:102CF00018901FFA8BF9F020B9F1000FADF82200FF
:102D00007AD00DF22910033007900DF1250040F222
:102D10006C560330C2F200064FF00008059000BF69
:102D20009AFA8AF040F27442000CC2F2000250801B
:102D3000F0200021B9F1F00F38BF484610718DF82E
:102D4000281111682A68079B10271960B2F86210D1
:102D500018710804D2E91412FF304AABCDE90031F2
:102D6000CDE902200DF2291005210DF125020DF10A
:102D700022032C46049723F01DFB0746B0B1BDF893
:102D80002200032826D3023881B2894528BF834612
:102D90000698059910FA88F01FFA8BF2ADF822B068
:102DA000FDF754FA38061AD02BE000BF22F00EF8D7
:102DB00007462AF089F9306810B180470028DED034
:102DC000022FF3D0002FDAD19DF828010028EDD191
:102DD000D5E700BF0020ADF82200380611D1BDF8BC
:102DE000220070B1A9EB000B1FFA8BF98244B9F1F4
:102DF000000F8044254693D100200DF50B7D00F097
:102E000005B801200DF50B7D00F000B830BCBDE821
:102E1000C08F00002DE9F047C4B08046F0200E4678
:102E2000ADF80E0088184FF6FF71C0F20F0108448C
:102E30000109C0F30F17A1EB16100DF1100A451C84
:102E40005046F0219146C6F30F14FDF726FA40F6DE
:102E50007440C2F20000006840F24442D0F803100F
:102E6000D0F80700C2F20002C2F80110C2F8050053
:102E700092E80B0015730DF1100C8CE80B00D2F8E2
:102E80000B00BC42CDF81B000AD8781C0AF10B01DC
:102E9000802200BF01F8022F4C700134A042F9D10A
:102EA0000D2000EB450042F2603500210DF10E02CD
:102EB00004AFC0F20405CDE9002181B238463A469C
:102EC000F023029529F06EFE000603D0012044B0E5
:102ED000BDE8F087BDF80E1006F00F00091A0D3995
:102EE000494503DA022044B0BDE8F087384400F1D8
:102EF0000D0140464A46FDF7A9F9002044B0BDE85F
:102F0000F08700002DE9F04FC7B005900020ADF824
:102F10001A01002A4FF0010000F03A8140F6744790
:102F2000C2F200070C4639680978032940F0308165
:102F300042F260369246C0F2040620F0A1FC0AEB91
:102F400004004FF000090DF11B054FF000084FF091
:102F5000000B049008E000BFBBF1000F00F0ED8013
:102F60000020002800F01381C24540F2148145F68C
:102F70003D71C2F20001AAEB08000978F0284FF079
:102F8000F00228BF104601297BD144F2A061C2F2B1
:102F90000001097829B340F28E41C2F2000109888C
:102FA00008EB0402B2FBF1F240F21053C2F200034C
:102FB0009A72120ADA72421EB2FBF1F13A68197380
:102FC000D2F80710D2F80320ADF81A010DF58D7074
:102FD000C3F80610C3F80220CDE9000918460D21F8
:102FE00048E00499FE291ED840F28E42C2F2000247
:102FF0001288F02108EB04030138ADF81A11396882
:10300000B3FBF2F3B0FBF2F0FF2203310095019223
:10301000DAB2C3B222200DF58D7502950DF11B05B4
:1030200028F01EF92BE040F28E41C2F2000109881F
:1030300008EB0402431EB2FBF1F2B3FBF1F140F2E4
:103040009043C2F200039A72120ADA721973090AE3
:103050003A685973D2F80710D2F80320ADF81A0174
:103060000DF58D70C3F80610CDE9000918460E2144
:10307000C3F802202A46FF23029629F093FD5FFA47
:1030800080FBBBF1000F07D145F63D70C2F2000096
:10309000007800287FF460AF44F2A060C2F2000024
:1030A000017840F28E40C2F20000008808EB040272
:1030B000B2FBF0F2002945F63D71C2F2000181F841
:1030C000009004D040F21D53C2F2000318E0FE2A23
:1030D00012D83968ADF81A010331D2B222202B463A
:1030E0000DF58D75A446FF24CDE900450DF11B05B6
:1030F000644628F0CFF81AE040F29E43C2F2000383
:1031000039685A81ADF81A01D1F80700D1F80310D7
:10311000C3F806000DF58D70C3F80210CDE9000963
:1031200018460C212A46FF23029629F03BFD5FFA40
:1031300080FBBBF1000F7FF413AFBDF81A0108EB61
:10314000040101F003028242BFF40AAF40F28E4252
:10315000C2F200021288B1FBF2F303FB1211CA4360
:1031600002EB000905982944404401311FFA89F215
:10317000ADF81A91524528BF5246FDF767F818FA84
:1031800089F84FF00009012000287FF4EDAE0120FE
:1031900047B000F004B8002047B000F000B830BCE1
:1031A000BDE8C08FB0B5ADF5087D40F2794240F280
:1031B0000311C2F20002ADF81610010A907100204E
:1031C0008DF81C0140F67440C2F200005171116884
:1031D00000684891D2F80310B0F86220CDF82311AE
:1031E0001104D0E91402FF3147AB1025CDE90030BE
:1031F000CDE902210DF21D100DF119020DF116039A
:103200000721049523F0D6F808B1012417E040F215
:103210006C55C2F2000500BF21F0D8FD044629F02C
:1032200053FF286808B1804730B1022CF4D01CB994
:103230009DF81C010028EFD1002C18BF01249DF837
:103240001C009DF81D10903818BF01202043002954
:1032500018BF012108430DF5087DB0BD2DE9F04FE1
:10326000ADF5137D8246F020ADF84601501887B2C7
:10327000099189B2914600228F42ADF830200B921D
:103280000A9240F2BD800DF24914099D601C0DAEFA
:1032900009F1050208901FFA89F04FEA152806F196
:1032A000050B0390FF2092B2CDE904B7CDE9068269
:1032B00037E0DAF800004FF004080A900A9940F26B
:1032C0003E40C2F20000AA08C0F802104FF0000B06
:1032D0000DF5A37142F260374270CDE9001B062163
:1032E0000DF24912F023C0F20407C244029729F0FC
:1032F00059FC00F0F801272988BF0020010604BF0F
:1033000055FA88F54FF0010BDDF81880BBF1000F7E
:10331000DDE904B70DAE0DF2491471D0A9B28F42A8
:1033200073D940F67442C2F2000213685A781F2A19
:1033300026DD202A03D0402A01D0602AEED14FF4A6
:1033400056400D90099851468DF8370058464A4628
:103350008DF836808DF83890FCF778FF0799304665
:1033600022460DF5A3732EF059F840F27241089AE7
:10337000C2F20001098812888A4241D14D44CDE74A
:103380007AB1012ACAD19AF80020A91E981DC9B2A3
:1033900029F078F9000633D101350AF1010A00203D
:1033A000BCE701F003070398C7F10408804528BF74
:1033B000804641EA080080073FF47BAF40F23C4181
:1033C000A808C2F2000148700DF5A370009000201B
:1033D0000AAC42F260360190084602212246F023F0
:1033E000C0F20406029629F0DDFB010602D04FF080
:1033F000000B89E7E01951464246FCF727FF5DE7DD
:1034000001200DF5137D00F008B8C0B2002818BFE8
:1034100001200DF5137D00F000B830BCBDE8C08F71
:103420002DE9F04FADF50B7D0E4611448CB2B1B2D3
:103430008246F0208C42ADF82A016DD9300A049002
:1034400006A890460530039005321FFA88F040F632
:1034500074470290FF20C2F2000792B235460192F3
:1034600000941AE04FF456400690049851468DF8A7
:103470001A00039842468DF81B608DF81C80FCF7FB
:10348000E5FE019906A80DF22D120DF595732DF0AC
:10349000C5FF4544A9B28C4243D93A681278012A43
:1034A000E0D0042AF6D101F003090298C9F1040B17
:1034B000834528BF834641EA0B00800706D1DAF82E
:1034C00000004FF0040B05A9059018E054460DF1DB
:1034D000140AC5F38700514628F018FE010605D0EE
:1034E000A246009C00210029D4D115E00AEB090076
:1034F00021465A46FCF7AAFE5146A246009CC5F357
:103500008700DA4428F08CFE010606BF55FA8BF5D9
:10351000012100210029BDD101200DF50B7D00F016
:1035200008B8C0B2002818BF01200DF50B7D00F0CF
:1035300000B830BCBDE8C08F2DE9F04FC9B00446DB
:10354000F0200D46ADF82200881840F67441C2F212
:10355000000109680138D1F80370D1F8071040F272
:103560005343C5F30F18C0F30F10C2F20003804598
:103570004FF0000AC3F80510C3F8017098BF4FF070
:10358000010A4ED804900130039003F10F0005901A
:10359000DDF814B04FEA0811E81705EB107020F0C1
:1035A0000F00A5EB0009C9F1100640F25347CDE921
:1035B0000682964228BF1646C2F2000758461022DD
:1035C00087F80E808846FFF725FC0BEB09002146A3
:1035D0003246FCF73BFE0DF12200009000200190E6
:1035E000384642F260371F210DF12502F023C0F268
:1035F0000407029729F0D6FADDE90632000610D159
:1036000004984FF0000A834238BF4FF0010A039834
:10361000414603F1010835443444921B10314045C2
:10362000BAD10AF0010049B000F000B830BCBDE8E2
:10363000C08F00002DE9F04F8BB0804650180590E8
:1036400000200DF11C0940F28E4B0C46CDE909001B
:10365000CDE90700ADF81A0095B209F10100C2F2F8
:10366000000B0390049523E0049D08BB5FE000BFBE
:10367000484641463A46FCF7E9FD3E46BBF80000A5
:1036800040F67441C2F200010968B4FBF0F2033164
:10369000C7B2D2B222204B46B044009727F010FFA9
:1036A000000606BF54FA86F40120002000283ED010
:1036B0000598844237D2BBF80070B4FBF7F000FBEA
:1036C00017417A1AD6B2AE4228BF2E465FFA81FA67
:1036D00006F0030151EA0A01CAD040F67441C2F271
:1036E000000109684B460331C2B222200DF11A07CE
:1036F0000A25CDE9005727F0CDFD00064FF0000068
:10370000B2D19DF81C100029AED1BBF8002003995E
:103710004846FCF79BFD09EB0A0041463246FCF7A0
:1037200095FD049DAAE700200BB000F004B801202D
:103730000BB000F000B830BCBDE8C08F80B540F2DF
:103740001401C2F2000151F8202044F6C271C0F603
:10375000030131F81010104600F070FEB0FA80F04E
:10376000400980BD10B586B041F24C02C4F202029D
:103770001368002843F0100313601268012902F057
:1037800010020192019A17D0D1BB44F6C271C0F663
:10379000030131F8101001910021CDE9021140F22E
:1037A0001401C2F2000151F820000221049101A984
:1037B00000F068FD06B010BD44F6C271C0F603010A
:1037C00031F81010044601910021039140F21401D8
:1037D000C2F2000151F820204FF40411029101A916
:1037E000104600F04FFD44F6BC70C0F603000457CD
:1037F0000F212046002201F043FA204601F02EFA64
:1038000006B010BDF0B581B041F6F041C2F2000142
:10381000096840F214450446C2F2000521B1296945
:1038200082208847208002E000202060A08020883D
:10383000002864D06B690DF102016A468220984726
:10384000BDF8000041F6F64CA0F5B47188B20B2823
:10385000C2F2000CADF8001001D2002109E04BF6D5
:103860002F214843BCF80020C10CB2EBD04F38BF29
:10387000511EBDF8020040F6B93240F6D863ADF8EB
:103880000010904238BF40F61E731A1A90B20F28EB
:10389000ADF8022001D200220CE048F68902504324
:1038A00041F6F442C2F200021388C20CB3EBD04FCF
:1038B00038BF5A1E40F2705EC2F2000EDEF8000001
:1038C00095B2431B38BF2B1A40F27450C2F200006D
:1038D000066889B2771A38BF8F1BBEB216FA83F317
:1038E000062BADF8022005D3BCF80020CEF800501E
:1038F000511A01600068DEF800106080A18001B0FC
:10390000F0BD0000B0B541F6F442C2F2000240F250
:103910001445108041F6F640C2F20005C2F20000E4
:103920006A6801808220904740F61101884208D1E0
:1039300041F6F042C2F2000200241560884203D032
:1039400008E00124884205D1296882208847E96877
:10395000822088472046B0BD70B540F22C06C2F2E6
:10396000000635684FF6E0742846C0F60F04FCF7F1
:10397000ABFC024620462946FCF7BBFC00B170BDFB
:1039800005200021FFF7EEFE642500BF0520FFF7AC
:10399000D5FE012804D1013D681CF7D14FF0FF3559
:1039A000002DC8BF70BD3068FCF78EFC005941681F
:1039B000006880F308888847FEE70000FEE7000003
:1039C000B0B584B042F22C34C2F200042078002555
:1039D0008DF8035038B1012006F04EFB13A10220F0
:1039E00005F0E2FC25700FF02DFC01A806F028FB85
:1039F00020B90DF1030006F035FBA0B102980021BB
:103A0000B4289DF80C0088BF0121002818BF0120B0
:103A100001424FF0010004D19DF80310002908BFB6
:103A2000002004B0B0BD002004B0B0BD4345206DFF
:103A30006F64652072756E6E696E6721000000000C
:103A4000704700002DE9F04FADF2147D40F67C4B3D
:103A5000C2F2000B0F46DBF8081040F2D426C2F287
:103A600000060446B1F80690F06AB1F80480924668
:103A700009EB070580472A1A02F00100DBF808105D
:103A800000EB52000025002ACDF80890C8BFA9EB32
:103A9000000988880192C8BF5508C9880138F669AD
:103AA000013982B28BB220463946B0474D4544D2E7
:103AB00008F10701C80801F0F801A1EB08014FF077
:103AC000FF3252FA81F10DF10C0C02E001354D4547
:103AD00033D205FB00F31AF80330012818D005FB98
:103AE00000A4032804D0022808D11B0201260DE0FF
:103AF0006678360246EA0343022607E06678A27833
:103B0000360446EA036343EA02230326A25D134315
:103B1000B8F1000FDAD0ACF1020246468C1923FA54
:103B200004F45F46E40708BF04373F68013E22F80B
:103B3000027FF3D102F1020CC8E70198029920EA52
:103B4000E070081A00FB08F103A804F08FFA0DF2E8
:103B5000147D00F000B830BCBDE8C08F80B54FF4D4
:103B6000004000F083FBBDE880402BF03FB900002F
:103B700040F2CC30C2F20000027F02F0FD010129C8
:103B800042F20001C4F202010FD10B6823F400736A
:103B90000B600B6843F400630B600B6823F4006355
:103BA0000B600B6843F400730B6002F0FE02022A04
:103BB0000BD10A6842F480520A600A6822F48052EB
:103BC0000A600A6842F480620A6000210177704747
:103BD000F0B581B042F210060446C4F2020600F0CD
:103BE00041FC3168C9030DD430684CF2FA31014010
:103BF00019D040F2CC30C2F2000042680A43426061
:103C0000012016E00546671C03E000BF3068C003D2
:103C1000EAD5002FFAD000F025FC401BA042F5D3D6
:103C2000032001B0F0BD3068C0074FF0000001D0A4
:103C30000121316001B0F0BD0020704700207047C5
:103C400041F6F840C2F20000D0F8BC120122002078
:103C5000CA6470472DE9F04F8DB0DDF858C00D1AD9
:103C600048BF6D42BCEB030748BF7F4281424FF023
:103C700001084FF0010E38BF4FF0FF389C450FFA96
:103C800085FC39B238BF4FF0FF3E8C4508DA00267C
:103C9000CDE905684FF000088C4629463D4605E011
:103CA0000021CDE905E14FF0000E39462DB2002D7F
:103CB000049500F18C80179C0CEBDC7709B27E1028
:103CC000009100210392CDE9018E1DE00098089932
:103CD000049F00FA81F001B2CE1BB8BF06460998D6
:103CE000DDF80480069A4044A8BF10440A9B029A5B
:103CF000B94213440599A8BF0B440799039A0131AF
:103D000009B2179CB94262DCCDE9071686B2B2EB64
:103D1000060C9DB248BFCCF1000C611B48BF494264
:103D200096424FF001074FF6FF724FF0010888BF2F
:103D30001746A54288BF90460FFA8CF60AB2964203
:103D4000CDE909034FF0000006DACDE90B070027A3
:103D5000164663468C4604E0CDE90B804FF0000820
:103D60000B460FFA8CF4002CB0D406EBD670DDE9CC
:103D700009694FEA600B1DB24FF0000A16E000BF60
:103D800005FA8BF001B2B1EB040BB8BF83463E4499
:103D90000C98A8BF0644C1440B98A142A8BF814417
:103DA0000AF101000FFA80FAA2458FDC40F2D4201C
:103DB000C2F200004369002BE2D040F67C40C2F220
:103DC00000000288B0B21FFA89F19847D8E70DB019
:103DD00000F000B830BCBDE8C08F0000B0B50446AC
:103DE00000F040FB054640F20850C2F200000078A7
:103DF000611C18BF044400BF00F034FB401BA0420C
:103E0000FAD3B0BD2DE9F04740F2CC39C2F2000937
:103E100099F80020012A04BF0220BDE8F08705467A
:103E2000012089F800004CF250308846FFF7D0FEA0
:103E3000002840F0968042F200070021C4F20207F9
:103E4000C9F8041039683A68520502D4C1F3402118
:103E500009E03A6811F400714FF0030122F4806226
:103E600008BF02213A6089F81C10296801291AD17B
:103E70006868C10703D0796941F00401796180075E
:103E800003D5786940F400407861786940F4803067
:103E900078614CF25030FFF79BFE796948F20402DA
:103EA0009143796134E04FF0FF31C8F80010D5E953
:103EB000024121448C422BD2E60040F2FA7A00BF44
:103EC0006868796960F3CB2181F400607861786972
:103ED000F10861F3CA007861786940F00200786106
:103EE000786940F4803078614CF25030FFF770FE12
:103EF000796921EA0A01796140B9D5E902120134F0
:103F000011448C4206F10806DAD301E0C8F80040FB
:103F100099F81C1001F0FD02012A0FD13A6822F431
:103F200000723A603A6842F400623A603A6822F4F9
:103F300000623A603A6842F400723A6001F0FE01B1
:103F400002290BD1396841F480513960396821F474
:103F500080513960396841F480613960002189F805
:103F60001C10002189F80010BDE8F08742F214010E
:103F7000C4F20201086840F0004200200A60704765
:103F80002DE9F04F81B040F2CC39C2F200099246DF
:103F900099F80020012A03D1022001B000F0B2B844
:103FA000044642F21005012098468B46C4F20205F1
:103FB00089F8000000F056FA2968C9030AD50746B7
:103FC0004CF24F3600F04EFAC01BB0421CD82868A5
:103FD000C003F7D428684CF2FA3110EA010207D086
:103FE000D9F8040011461043C9F80400012005E087
:103FF00028680121C0074FF0000003D0B2FA82F216
:104000002960510921B977E003200021002973D0EC
:104010000020C9F8040055F8101C490506D555F8CC
:10402000100C20F4806045F8100C022089F81C0068
:104030001CB3022C2FD86868AAF1040240F4802037
:104040006860EFF31080EFF3108172B6ABF10401FA
:10405000402300BF52F8047F013B1E0641F8047F55
:10406000F8D1A71E18BF012780F310886FF48028AD
:10407000022C18BF4FF0FF3810E06868002740F0AE
:1040800001006860CBF800A0BFF36F8FCBF804800D
:104090006FF0010802E04FF0FF38012700F0E2F96D
:1040A0002968C9030AD504464CF24F3600F0DAF904
:1040B000001BB04216D82868C003F7D428684CF219
:1040C000FA31014006D0D9F804000843C9F80400C9
:1040D000012005E02868C0074FF0000003D001214F
:1040E000296000E0032004461FB9686800EA080060
:1040F0006860FFF73DFD2046002189F8001001B0FF
:1041000000F000B830BCBDE8C08F000042F20800EB
:10411000C4F20200C168B1F1FF3FC4BF0020704784
:1041200040F22311C4F26751016048F6AB11CCF69E
:10413000EF510160C068C00F70470000002908BF40
:1041400070472DE9F04F81B041F6000200F1384789
:10415000C4F6000207234FEAB726904208BF0623A1
:1041600000F1200E062E38BF4FEAB72300240027A7
:10417000002500932AE000BF02680323A3401A43EE
:1041800002606FF0030202EA550607F01C0C5EF8AD
:1041900006800F2202FA0CF228EA02024EF80620EC
:1041A00082689A438260426822EA0A024260C268D8
:1041B0009A43C260C26A22EA0A02C262013531FA37
:1041C00005F207F1040704F102043BD0012202FAD0
:1041D00005FA1AEA0108F1D040F20042C4F20102E5
:1041E000A2F57E7C25F0030307F00C0B0F225CF890
:1041F000033002FA0BF9009A03EA090302FA0BF200
:104200009342B9D140F20046C4F20106326840F24E
:104210000C4322EA080232607268C4F2010322EA07
:10422000080272601A6822EA08021A60B268AB08D3
:1042300022EA0802B2605CF8232022EA09024CF864
:10424000232099E701B000F001B8704730BCBDE809
:10425000C04FFFF7FABF0000B0F5007F18BF7047EE
:1042600044F23C00C2F2000000F076BD40F214417E
:10427000C4F201010A68024214BF08607047FFF7E8
:10428000EBBF00002DE9F04F83B00E68002E00F068
:10429000CF8000F1200241F6000C009200F1384777
:1042A000C4F6000C07224FEAB725604508BF062276
:1042B000062D38BF4FEAB722002500274FF000082F
:1042C00001920AE00E6808F1010836FA08F207F1D7
:1042D000020705F1040500F0AB80012202FA08FB99
:1042E00016EA0B09EED0D1F804A003220AF0030667
:1042F000741E012C02FA07FC11D88468D1F80CE076
:1043000024EA0C040EFA07F2224382604268CAF3E0
:10431000001422EA0B0204FA08F422434260032E3E
:104320000CD1C26ACAF3C00422EA0B0204FA08F4F0
:104330002243C262022E0AD01BE000BFC2688C6812
:1043400022EA0C02BC402243C260022E11D16FF05F
:10435000030202EA580A009A05F01C0452F80AE027
:104360000F230E69A3402EEA0303A640334342F80D
:104370000A3002684B6822EA0C0203F00306BE40D2
:10438000324313F4403F02609CD041F26003C4F218
:1043900002031A6840F2004E42F001021A601A68E5
:1043A000C4F2010E02F001020292029A28F0030206
:1043B0004FF6084C7244CFF6FF7C52F80C3005F0F3
:1043C0000C060F24B440A343019C04FA06F63343C1
:1043D00042F80C30DEF808204B6842EA090640F249
:1043E0000C4CDC0258BF22EA0906CEF80860C4F281
:1043F000010CDCF800209C0242EA090658BF22EAC0
:104400000906CCF80060DEF804209C0342EA0906A5
:1044100058BF22EA0906CEF80460DEF80020DB036C
:1044200042EA090658BF22EA0906CEF8006049E7C9
:1044300003B000F000B830BCBDE8C08F0069084090
:1044400018BF012070470000426902EA010391434E
:1044500041EA0341816170471823002A08BF2823DD
:10446000C150704746F63810C2F20000006870472D
:10447000002804BF0120704710B5242180F84110A6
:10448000016804460A6822F001020A6000F04EFB4F
:104490000020606484F84100206384F8420084F8BE
:1044A000400010BD90F8410070470000002804BF94
:1044B0000120704710B590F8411031B9002180F803
:1044C0004010044600F034FB2046242180F84110BF
:1044D00090E80610C4680B6822F0706223F00103B4
:1044E0000B600A618A68012C22F400428A604FF452
:1044F000044208BF4FF4004242EA0C028A604A6854
:10450000022C22F4006208BF02F500624A604A6889
:1045100000F1100442F0007242F400424A60CA689E
:1045200022F40042CA601CCC1A4342EA0422CA6048
:10453000D0E907231A430A600A6842F001020A60C0
:1045400000212022416480F84120016380F842105C
:10455000002010BD2DE9F04F81B0044690F84100D5
:10456000202807D10A9F4FB10B9D3DB194F8400020
:10457000012807D1022001B000F05AB94FF40070B1
:10458000606451E101208A469B46914684F84000D0
:10459000FFF768FF216806468969090426D42220AE
:1045A00084F84100402084F8420000206064676283
:1045B00065856063206849F600084268CFF60048C8
:1045C0006FF39F2A5FFA8BF14AEA014102EA08027F
:1045D000114401F50051416080690C9F800734D47B
:1045E0007D1C20E0206880690004D8D5FFF73AFFE1
:1045F000801B1A28F6D3206880690004F2D5606C0D
:1046000040F020006064202084F84100002084F8FD
:10461000420007E120688069800740F1F680206849
:104620008069800711D420463946324603F0B6F936
:10463000002840F0F680002DF1D0FFF713FF002F87
:10464000E8D0801BB842EAD9E4E72068BBF1010F4B
:1046500023D04FEA19218162806980071CD47D1C18
:1046600008E020688069800740F1CF802068806979
:10467000800711D420463946324603F08FF90028CE
:1046800040F0CF80002DF1D0FFF7ECFE002FE8D0F6
:10469000801BB842EAD9E4E720685FFA89F18162B9
:1046A00020688069400614D47D1C08E02068806979
:1046B000400640F1AA8020688069400609D4002D98
:1046C000F9D0FFF7CFFE002FF0D0801BB842F2D90F
:1046D000ECE7608D40F20009B0F5807FC0F2FF1971
:1046E00009D3FF212068218550F8041F09F51052D5
:1046F00001EA08010BE0618D2068218550F8042F44
:10470000C9B202EA080242EA014109F592321143B4
:1047100041EA0A017D1C4FF0FF0B08F5806801603B
:1047200005E000BF2068806940077FF568AF20681A
:104730008069400709D4002DF9D0FFF793FE002FC0
:10474000F0D0801BB842F2D9ECE72068616A406A79
:104750000870606A218D01306062481E2085618D7D
:1047600001396185618D99B3000406D030E000BF46
:104770002068806900067FF542AF206880690006E6
:1047800009D4002DF9D0FFF76DFE002FF0D0801B6B
:10479000B842F2D9ECE7608DB0F5807F08D320688D
:1047A000A4F828B050F8041F4A4601EA08010BE0BB
:1047B000618D2068218550F8042FC9B202EA0802F1
:1047C00042EA01414FF00072114341EA0A010160DF
:1047D000608D0028ABD120463946324603F078F987
:1047E00010BB20682021C16142684EF60003CFF65D
:1047F00000631A404260002084F8411084F84200AF
:1048000084F8400001B000F013B8606C40F0200064
:104810006064202084F84100002084F8420084F87D
:104820004000002084F84000012001B000F000B8F2
:1048300030BCBDE8C08F00002DE9F04F81B00446C8
:1048400090F84100202807D10A9F4FB10B9D3DB140
:1048500094F84000012807D1022001B000F062B9AD
:104860004FF40070606459E101208A469B469146EE
:1048700084F84000FFF7F6FD2168064689690904BF
:104880002AD4212084F84100402084F842000020EE
:10489000606467626585216849F600486063CFF609
:1048A00000484A686FF39F2A5FFA8BF0A8F580638F
:1048B0004AEA00401A40104440F0807040F4005032
:1048C000486088690C9F800735D47D1C21E000BFBB
:1048D000206880690004D4D5FFF7C4FD801B1A2826
:1048E000F6D3206880690004F2D5606C40F02000A7
:1048F0006064202084F84100002084F842000BE12D
:1049000020688069800740F1FA802068806980070C
:1049100011D420463946324603F040F8002840F0D2
:10492000FA80002DF1D0FFF79DFD002FE8D0801B0D
:10493000B842EAD9E4E72068BBF1010F23D04FEA7F
:1049400019218162806980071CD47D1C08E02068E1
:104950008069800740F1D38020688069800711D486
:1049600020463946324603F019F8002840F0D3803B
:10497000002DF1D0FFF776FD002FE8D0801BB84264
:10498000EAD9E4E720685FFA89F1816220688069EA
:10499000000614D47D1C08E020688069000640F100
:1049A000AE8020688069000609D4002DF9D0FFF799
:1049B00059FD002FF0D0801BB842F2D9ECE7608D92
:1049C000B0F5807F0AD3FF212068218550F8041FAD
:1049D0000022C0F2FF1201EA08010BE0618D20689D
:1049E000218550F8042FC9B202EA080242EA0141C7
:1049F0004FF00072114340F2000941EA0A017D1CA8
:104A0000C0F2FF194FF0FF0B016004E020688069DD
:104A100080077FF56AAF20688069800710D4204640
:104A20003946324602F0BAFF002877D1002DF2D085
:104A3000FFF718FD002FE9D0801BB842EBD9E5E75E
:104A4000616A206811F8012B82626162618D01390F
:104A50006185218D01392185628D9AB3090407D0C2
:104A600030E000BF2068806900067FF53EAF206817
:104A70008069000609D4002DF9D0FFF7F3FC002F60
:104A8000F0D0801BB842F2D9ECE7608DB0F5807FA2
:104A900008D32068A4F828B050F8041F4A4601EA59
:104AA00008010BE0618D2068218550F8042FC9B200
:104AB00002EA080242EA01414FF00072114341EA62
:104AC0000A010160608D0028A5D120463946324692
:104AD00002F0FEFF10BB20682021C16142684EF643
:104AE0000003CFF600631A404260002084F84110B2
:104AF00084F8420084F8400001B000F013B8606C04
:104B000040F020006064202084F84100002084F8F8
:104B1000420084F84000002084F84000012001B0E9
:104B200000F000B830BCBDE8C08F00007047000046
:104B30007047000040F2085046F63811C2F20000FB
:104B4000C2F2000100780A68104408607047000053
:104B500080B5032000F0C0F80F2000F009F800280D
:104B60001CBF012080BD00F031F8002080BD000096
:104B700040F20851C2F200010978002904BF012067
:104B8000704710B5044640F22410C2F200004FF402
:104B90007A720068B2FBF1F1B0FBF1F002F00CFBAD
:104BA00001460F2C4FF001000ED8002918BF10BD90
:104BB0004FF0FF302146002200F062F840F20C5125
:104BC0000020C2F200010C6010BD000080B582B070
:104BD00041F25800C4F20200816841F00101816095
:104BE000816801F0010101910199016841F0805152
:104BF0000160006800F0805000900098032000F0F1
:104C00006BF86FF00B000021002200F039F86FF014
:104C10000A000021002200F033F86FF009000021A3
:104C2000002200F02DF86FF004000021002200F0B7
:104C300027F86FF003000021002200F021F86FF048
:104C400001000021002200F01BF84FF0FF3000218E
:104C5000002202B0BDE8804000F012B8002848BF32
:104C6000704700F01F01012202FA01F11C2202EA42
:104C7000D0004EF20012CEF20002815070470000C8
:104C800010B54EF60C5CCEF2000CDCF80030C3F32D
:104C9000022E8EF00704042C28BF0424BEF1030367
:104CA0004FF0FF3E0EFA04F438BF0023A1439940B1
:104CB0000EFA03F39A43114300F1604200F00F0330
:104CC000090102F56442043B6344002848BF03F134
:104CD0000C02117010BD00004EF60C51CEF2000116
:104CE0000A684FF6FF031A4060F30A2242F0806020
:104CF00040F0FD700860704709F0E0F9012201689A
:104D0000C0F80025002280F8F424886940F0006093
:104D10008861486D40F0805040F0030200204A65F1
:104D200070470000B0B5ADF5387D0D4641F6F8414D
:104D30000446C2F2000101A84FF43772FBF786FA6D
:104D400035B9D4F80405012802D101A808F098F972
:104D50000DF5387DB0BD000070B506680446FFF75C
:104D600081FBB16B054641F48020B0634FF496702F
:104D7000FFF734F8B06BC00703D02046FE21FFF7E1
:104D8000D1FFB06B20F48020B0633220FFF726F80B
:104D9000B06B40F40020B0633220FFF71FF8B06B17
:104DA000800701D4FD2014E0B06B20F40020B06334
:104DB0003220FFF713F8B06B40F48010B06332205C
:104DC000FFF70CF8B06B40076FF0040058BF6FF0AE
:104DD0000300C1B22046FFF7A5FF20680026816BC3
:104DE00021F480118163816B21F400218163816B47
:104DF00021F400318163C4F80465FFF733FB401BE5
:104E0000B0F57A7F88BFFF2620463146BDE8704066
:104E1000FFF788BF704700000268002051627047AA
:104E2000B0B5D0F800E0DEF82400D1B1DEF82830CB
:104E3000B1F1010C00EB13430BD05FFA8CF10EF5CE
:104E40008070002450F8045F01348C4203EB15435A
:104E5000F8D343EA02400EEB8C01C1F804010020B4
:104E6000B0BD40EA0240CEF828000020B0BD0000EE
:104E7000D0F8080507F020BF01EBC102D0F80835D3
:104E800000EB8200826C184607F082BE01EBC10283
:104E9000D0F8083500EB8200D0F88822184607F0D9
:104EA000D1BE0000D0F8080507F008BF10B501F02A
:104EB0000F0E0A464FFA81FC0EEBCE0100EB810388
:104EC00003F51F71BCF1000F48BF03F13C0190F8DE
:104ED000BC34D209012B4A7081F800E004BF0220E3
:104EE00010BD0268012380F8BC340446104608F067
:104EF00029FC002084F8BC0410BD0000436801F0C8
:104F00000F0293423CBF0120704710B502EBC20371
:104F100000EB83034FFA81FC8E4603F51F71BCF151
:104F2000000F48BF03F13C014FEADE134B7090F8CD
:104F3000BC344FF0000C012B81F802C00A7004BF92
:104F4000022010BD0268012380F8BC3404461046DC
:104F500008F060FD002084F8BC0410BDB0B501F07D
:104F60000F0E8C464CB20EEBCE0100EB810505F521
:104F70001F71002C48BF05F13C015FEADC154D7044
:104F800081F800E08A600B7118BFA1F81AE0022BCB
:104F900004BF00224A7190F8BC24012A04BF0220F9
:104FA000B0BD0268012380F8BC340446104608F006
:104FB00045FB002084F8BC04B0BD000010B501F032
:104FC0000F0C0CEBCC0100EB810E00680EF51F718D
:104FD0000024CEF88822CEF88C32CEF890428EF89B
:104FE0007D428EF87CC208F05BFD002010BD000001
:104FF000B0B5426801F00F0494424FF001022BD883
:1050000001EBC10300EB83034FFA81FC03F51F732F
:1050100004EBC405C90900EB8505BCF1000F48BFCE
:1050200005F13C03597090F8BC149A7001291C706A
:1050300004BF0220B0BD0168054680F8BC240846C4
:10504000194608F00FFD24B9286805F2C44108F09C
:10505000BFFC002285F8BC241046B0BD80B501F02D
:105060000F0C0CEBCC0100EB810101F83CCF01F1FE
:105070000C0E00684FF0000C8EE80C1001224A70F4
:1050800008F00EFD002080BD2DE9F04F85B0D0F86E
:1050900000808146404608F053FE10B105B000F094
:1050A0004CBBD9F8000008F079FE0028F6D0D8F8FB
:1050B0000808C0F30D21D9F80000C9F8FC1408F065
:1050C0006DFE800705D5D9F80000416901F00201A5
:1050D0004161D9F8000008F50061049108F05EFE16
:1050E000C00636D5D9F80000816921F01001816130
:1050F000D8F8204004F00F0000EBC00009EB80015D
:10510000C4F34340062801F51F7511D002281AD1B7
:1051100047F6F07014EA000615D0E96834094046F5
:10512000224608F03FFEE86800EB1610E86007E052
:1051300009F2C4414046082208F034FEC4F30A14C0
:10514000686920446861D9F80000816941F0100164
:105150008161D9F8000008F021FE000340F18C8045
:10516000D9F8000008F0F8FD002800F08580064618
:105170004FF4306440F27F274FF0000A19E000BF7F
:1051800008EB040002218160A80642BF08EB04007E
:1051900020218160A80442BF08EB04004FF40051B5
:1051A00081600AF1010A760804F1200407F124075E
:1051B00062D0F007F5D0D9F800005FFA8AFB5946B3
:1051C00008F0E4FD0546C00719D008EB04000121F2
:1051D0008160D9F8000043F20B03026C2044C4F64E
:1051E00054738168FF339A4205D10A043ED489067C
:1051F00044BF2021816048465946FFF747FE2807F3
:1052000017D508EB040008218160D9F8000043F2AB
:105210000B03026C20448168C4F654739A4205D390
:1052200011F400411CBF4FF400418160484600F07A
:10523000C3FBE80642BF08EB040010218160A80709
:10524000A2D5D8F81400000604D50499486840F4A3
:105250008060486019F80700012891D1002009F802
:1052600007004846594600F06FFA89E74FF40041BD
:1052700081602807C5D4DCE7D9F8000008F08EFD6E
:10528000400340F1B180D9F8000008F05DFD00282E
:1052900000F0AA80064608F5106B09F13C000027D3
:1052A0000390CDE901B804E0760807F1010700F0AA
:1052B0009B80F007F8D0D9F80000FDB2294608F02D
:1052C00053FD0446C00710D0049A07F00F00516B3D
:1052D000012303FA00F021EA000050630BEB4710B2
:1052E000836048462946FFF7C7FD200742BF0BEB06
:1052F000471008218160E00642BF0BEB47101021E8
:105300008160600642BF0BEB471040218160A0071F
:1053100016D54046394608F0E3FC039907EBC70071
:1053200001EB800010F8031F012905D10021017055
:105330004846294600F004FA0BEB47100221816031
:105340002006B1D5039907EBC70001EB800ADAE923
:1053500004108142A8D3D9F80040DAF80820081ACE
:10536000904238BF024604EB4710D0F818190332B8
:1053700089B2B1EB920F24D300F51068DAE904206A
:1053800082421ED9DAE902B1101A584538BF834665
:105390001FFA8BF320462A4608F0F2FDDAF80C00DB
:1053A000DAF814105844CAF80C0001EB0B00CAF8E4
:1053B0001400D8F818000BF1030180B2B0EB910F84
:1053C000DCD2DAE90401DDE901B888423FF66CAFCE
:1053D00007F00F00D4F83418012202FA00F021EA95
:1053E0000000C4F834085FE7D9F8000008F0D6FCE4
:1053F000B0F1FF3F19DC0499486820F001004860D3
:1054000099F8F404012807D1002089F8F4044846EB
:105410000021FFF7FFFC02E0484600F097FAD9F8B8
:105420000000416901F000414161D9F8000008F035
:10543000B5FC00050CD504988068C00702D048462A
:1054400000F0DEFAD9F80000416901F40061416121
:10545000D9F8000008F0A2FC000117D5D9F8000027
:10546000416901F00061416199F8F41419B14846AD
:1054700000F0C6FA0AE0012189F8F414406DC0F387
:105480008300C9F8F8044846FFF7C4FCD9F80000C7
:1054900008F084FCC00452D50499486820F001004B
:1054A0004860D9F80000102108F01AFCD9F804006F
:1054B000D8B108F510614FF67F3200BF8A600B68E3
:1054C000013823F400130B60C1F80822D1F8003230
:1054D00023F40013C1F80032D1F8003243F0006326
:1054E000C1F8003201F12001E8D1049E8422F06964
:1054F000442340F00110F061D9F83010D9F80000D1
:1055000000294FF00B0108BF142208BF42F22B0103
:10551000B75808BF10233943B150F15841F00B017F
:10552000F150316821F4FE61316009F2C44108F0A4
:105530004FFAD9F80000416901F480514161D9F86E
:10554000000008F02BFC80041CD5D9F8000008F0FE
:10555000B5F8D9F8000008F0EBFBD9F80040C9F81D
:10556000100000F0B5FD99F810200146204608F023
:105570007FFC484600F0DCF9D9F80000416901F4ED
:1055800000514161D9F8000008F008FC000708D577
:10559000484600F0F7F9D9F80000416901F0080128
:1055A0004161D9F8000008F0F9FB00062CD5D8F8C5
:1055B000180020F08000C8F81800D9F8040002286C
:1055C00022D309F51F7409F13C05012640F2A327F7
:1055D00007E000BFD9F804000136864207F124072E
:1055E00012D219F807000128F4D106F00F0000EBE1
:1055F000C0023006D9F8000005EB820158BF04EB69
:10560000820108F01FFBE5E7D9F8000008F0C6FBAF
:10561000C0022FD5D9F80400022825D309F13C0493
:1056200008F5126509F163064FF0010A012707E04A
:10563000D9F8040001372035874206F1240613D239
:10564000286871780129F3D1B0F1FF3FF0DC07F051
:105650000F0000EBC001D9F8000004EB810186F8CF
:1056600000A008F0EFFAE3E7D9F80000416901F47F
:1056700080114161D9F8000008F090FB800236D516
:10568000D9F8041002292CD308F53260013909F544
:105690002972012305E000BF2030013902F1240204
:1056A0001FD007681678012EF6D1B7F1FF3FF3DC63
:1056B000D9F8FC6407F4803706F00106B742EBD155
:1056C00002F8013CD8F8187047F08007C8F8187045
:1056D000D8F814703F06DFD40499486840F400708D
:1056E0004860D9F80000416901F400114161D9F81E
:1056F000000008F053FB400008D54846FFF7B8FB10
:10570000D9F80000416901F080414161D9F80000F9
:1057100008F044FB40077FF5C1ACD9F800004468AD
:10572000600702D54846FFF7BDFBD9F80000416885
:105730002143416005B000F000B830BCBDE8C08F27
:10574000D0F8080507F028BBD0F8080507F03ABBE9
:10575000002804BF012070472DE9F04F8BB00446AC
:10576000056890F8BD0428B9002084F8BC042046E0
:1057700000F096F8032084F8BD04E86BC0055CBF18
:105780000020E060206808F01BF9206804F11C0A82
:105790000A90D4E90C5004F1040E9AE8C0079EE880
:1057A0000E58CDE9085003A880E8C0030A988DE898
:1057B0000058CDF81CA007F091FF002852D12068B6
:1057C0000021002508F010FB616861B304F13C0082
:1057D0004FF0010C0022002302EBC20200EB820713
:1057E00000F82230DAB201337A83DAB2914287F8D4
:1057F00001C03D71C7E902553D61EDD804F51F7048
:1058000000220025002300BF05EBC50700F8273064
:105810000133DDB200EB8706A94272703271C6E92E
:1058200002223261F0D8A06822680A90D4E90C50B4
:1058300004F1140E04F1240AD4E903379EE8405819
:105840009AE80007CDE9085002A880E80058104601
:105850000A9ACDE90076CDE90589CDF81CA007F0BC
:10586000D1FF30B1022084F8BD0401200BB000F05C
:1058700013B8002084F83800012084F8BD04606A61
:10588000012802D12046FFF739FA206807F0AAFF65
:1058900000200BB000F000B830BCBDE8C08F0000A5
:1058A0000068B0F1A04F18BF704710B586B04FF434
:1058B000C050019002200290002003900320049029
:1058C0000A2041F25804059001A94FF09040C4F21B
:1058D0000204FEF7D7FC54F80C0C40F4805044F856
:1058E0000C0C54F80C0C00F48050009000982068C8
:1058F000C0000FD4206840F080502060206800F085
:1059000080500090009800F0D9F8206820F0805076
:10591000206001E000F0D2F8432000210022FFF7D0
:10592000AFF94320FFF79AF906B0BDE81040704781
:1059300010B50446D0F80805012107F0C9FAD4F8DB
:105940000805BDE8104007F079BA000010B504461C
:105950000068D0F8001E21F00101C0F8001E206A86
:1059600048B14EF61050CEF20000016821F0060159
:10597000016006F0CBF9D4F80805BDE8104007F047
:105980008DBA0000D0F8080507F092BA90F8BC2450
:10599000012A04BF0220704710B5012280F8BC2400
:1059A00080F8381002680446104608F04FFA0020CC
:1059B00084F8BC0410BD0000D0F8082500F2C441F2
:1059C000104607F09BBA000010B5044690F8BC04DE
:1059D000012804BF022010BDA16A2068012201290C
:1059E00084F8BC2403D1816B41F48031816308F0D9
:1059F0006FF9206807F0E6FE002084F8BC0410BDB3
:105A000010B504460068D0F8001E41F00101C0F84E
:105A1000001ED4F8080507F0C5FA206A002808BF60
:105A200010BD4EF61050CEF20000016841F00601A4
:105A3000016010BD47F2000CC4F2000CDCF800203D
:105A4000B0F5007F02F4C0602BD1B0F5007F26D006
:105A5000DCF80000012262F34A20CCF8000040F29A
:105A60002410C2F200000068322358434DF68363CD
:105A7000C4F21B33A0FB030302EB9340002200BFE0
:105A8000DCF81410013842F10003490501D5002B60
:105A9000F6D1DCF81400400544BF03207047002015
:105AA0007047B0F5806FFAD0DCF80000022161F396
:105AB0004A20CCF8000000207047000047F20400A4
:105AC000C4F20000016841F4806101607047000089
:105AD00047F20000C4F20000006800F4C0607047A4
